{
  "_format": "hh-sol-artifact-1",
  "contractName": "REToken",
  "sourceName": "contracts/REToken.sol",
  "abi": [
    {
      "inputs": [],
      "stateMutability": "nonpayable",
      "type": "constructor"
    },
    {
      "anonymous": false,
      "inputs": [
        {
          "indexed": true,
          "internalType": "address",
          "name": "account",
          "type": "address"
        },
        {
          "indexed": true,
          "internalType": "address",
          "name": "operator",
          "type": "address"
        },
        {
          "indexed": false,
          "internalType": "bool",
          "name": "approved",
          "type": "bool"
        }
      ],
      "name": "ApprovalForAll",
      "type": "event"
    },
    {
      "anonymous": false,
      "inputs": [
        {
          "indexed": true,
          "internalType": "address",
          "name": "previousOwner",
          "type": "address"
        },
        {
          "indexed": true,
          "internalType": "address",
          "name": "newOwner",
          "type": "address"
        }
      ],
      "name": "OwnershipTransferred",
      "type": "event"
    },
    {
      "anonymous": false,
      "inputs": [
        {
          "indexed": true,
          "internalType": "address",
          "name": "operator",
          "type": "address"
        },
        {
          "indexed": true,
          "internalType": "address",
          "name": "from",
          "type": "address"
        },
        {
          "indexed": true,
          "internalType": "address",
          "name": "to",
          "type": "address"
        },
        {
          "indexed": false,
          "internalType": "uint256[]",
          "name": "ids",
          "type": "uint256[]"
        },
        {
          "indexed": false,
          "internalType": "uint256[]",
          "name": "values",
          "type": "uint256[]"
        }
      ],
      "name": "TransferBatch",
      "type": "event"
    },
    {
      "anonymous": false,
      "inputs": [
        {
          "indexed": true,
          "internalType": "address",
          "name": "operator",
          "type": "address"
        },
        {
          "indexed": true,
          "internalType": "address",
          "name": "from",
          "type": "address"
        },
        {
          "indexed": true,
          "internalType": "address",
          "name": "to",
          "type": "address"
        },
        {
          "indexed": false,
          "internalType": "uint256",
          "name": "id",
          "type": "uint256"
        },
        {
          "indexed": false,
          "internalType": "uint256",
          "name": "value",
          "type": "uint256"
        }
      ],
      "name": "TransferSingle",
      "type": "event"
    },
    {
      "anonymous": false,
      "inputs": [
        {
          "indexed": false,
          "internalType": "string",
          "name": "value",
          "type": "string"
        },
        {
          "indexed": true,
          "internalType": "uint256",
          "name": "id",
          "type": "uint256"
        }
      ],
      "name": "URI",
      "type": "event"
    },
    {
      "inputs": [
        {
          "internalType": "address",
          "name": "account",
          "type": "address"
        },
        {
          "internalType": "uint256",
          "name": "id",
          "type": "uint256"
        }
      ],
      "name": "balanceOf",
      "outputs": [
        {
          "internalType": "uint256",
          "name": "",
          "type": "uint256"
        }
      ],
      "stateMutability": "view",
      "type": "function"
    },
    {
      "inputs": [
        {
          "internalType": "address[]",
          "name": "accounts",
          "type": "address[]"
        },
        {
          "internalType": "uint256[]",
          "name": "ids",
          "type": "uint256[]"
        }
      ],
      "name": "balanceOfBatch",
      "outputs": [
        {
          "internalType": "uint256[]",
          "name": "",
          "type": "uint256[]"
        }
      ],
      "stateMutability": "view",
      "type": "function"
    },
    {
      "inputs": [
        {
          "internalType": "address",
          "name": "account",
          "type": "address"
        },
        {
          "internalType": "address",
          "name": "operator",
          "type": "address"
        }
      ],
      "name": "isApprovedForAll",
      "outputs": [
        {
          "internalType": "bool",
          "name": "",
          "type": "bool"
        }
      ],
      "stateMutability": "view",
      "type": "function"
    },
    {
      "inputs": [
        {
          "internalType": "address",
          "name": "_to",
          "type": "address"
        },
        {
          "internalType": "uint256",
          "name": "_tokenId",
          "type": "uint256"
        },
        {
          "internalType": "uint256",
          "name": "_amount",
          "type": "uint256"
        },
        {
          "internalType": "string",
          "name": "_tokenURI",
          "type": "string"
        },
        {
          "internalType": "bytes",
          "name": "_data",
          "type": "bytes"
        }
      ],
      "name": "mint",
      "outputs": [],
      "stateMutability": "nonpayable",
      "type": "function"
    },
    {
      "inputs": [],
      "name": "owner",
      "outputs": [
        {
          "internalType": "address",
          "name": "",
          "type": "address"
        }
      ],
      "stateMutability": "view",
      "type": "function"
    },
    {
      "inputs": [],
      "name": "renounceOwnership",
      "outputs": [],
      "stateMutability": "nonpayable",
      "type": "function"
    },
    {
      "inputs": [
        {
          "internalType": "address",
          "name": "from",
          "type": "address"
        },
        {
          "internalType": "address",
          "name": "to",
          "type": "address"
        },
        {
          "internalType": "uint256[]",
          "name": "ids",
          "type": "uint256[]"
        },
        {
          "internalType": "uint256[]",
          "name": "amounts",
          "type": "uint256[]"
        },
        {
          "internalType": "bytes",
          "name": "data",
          "type": "bytes"
        }
      ],
      "name": "safeBatchTransferFrom",
      "outputs": [],
      "stateMutability": "nonpayable",
      "type": "function"
    },
    {
      "inputs": [
        {
          "internalType": "address",
          "name": "from",
          "type": "address"
        },
        {
          "internalType": "address",
          "name": "to",
          "type": "address"
        },
        {
          "internalType": "uint256",
          "name": "id",
          "type": "uint256"
        },
        {
          "internalType": "uint256",
          "name": "amount",
          "type": "uint256"
        },
        {
          "internalType": "bytes",
          "name": "data",
          "type": "bytes"
        }
      ],
      "name": "safeTransferFrom",
      "outputs": [],
      "stateMutability": "nonpayable",
      "type": "function"
    },
    {
      "inputs": [
        {
          "internalType": "address",
          "name": "operator",
          "type": "address"
        },
        {
          "internalType": "bool",
          "name": "approved",
          "type": "bool"
        }
      ],
      "name": "setApprovalForAll",
      "outputs": [],
      "stateMutability": "nonpayable",
      "type": "function"
    },
    {
      "inputs": [
        {
          "internalType": "bytes4",
          "name": "interfaceId",
          "type": "bytes4"
        }
      ],
      "name": "supportsInterface",
      "outputs": [
        {
          "internalType": "bool",
          "name": "",
          "type": "bool"
        }
      ],
      "stateMutability": "view",
      "type": "function"
    },
    {
      "inputs": [
        {
          "internalType": "address",
          "name": "newOwner",
          "type": "address"
        }
      ],
      "name": "transferOwnership",
      "outputs": [],
      "stateMutability": "nonpayable",
      "type": "function"
    },
    {
      "inputs": [
        {
          "internalType": "uint256",
          "name": "",
          "type": "uint256"
        }
      ],
      "name": "uri",
      "outputs": [
        {
          "internalType": "string",
          "name": "",
          "type": "string"
        }
      ],
      "stateMutability": "view",
      "type": "function"
    }
  ],
  "bytecode": "0x60806040523480156200001157600080fd5b506040518060200160405280600081525062000033816200005a60201b60201c565b5062000054620000486200006f60201b60201c565b6200007760201b60201c565b6200049e565b80600290816200006b9190620003b7565b5050565b600033905090565b6000600360009054906101000a900473ffffffffffffffffffffffffffffffffffffffff16905081600360006101000a81548173ffffffffffffffffffffffffffffffffffffffff021916908373ffffffffffffffffffffffffffffffffffffffff1602179055508173ffffffffffffffffffffffffffffffffffffffff168173ffffffffffffffffffffffffffffffffffffffff167f8be0079c531659141344cd1fd0a4f28419497f9722a3daafe3b4186f6b6457e060405160405180910390a35050565b600081519050919050565b7f4e487b7100000000000000000000000000000000000000000000000000000000600052604160045260246000fd5b7f4e487b7100000000000000000000000000000000000000000000000000000000600052602260045260246000fd5b60006002820490506001821680620001bf57607f821691505b602082108103620001d557620001d462000177565b5b50919050565b60008190508160005260206000209050919050565b60006020601f8301049050919050565b600082821b905092915050565b6000600883026200023f7fffffffffffffffffffffffffffffffffffffffffffffffffffffffffffffffff8262000200565b6200024b868362000200565b95508019841693508086168417925050509392505050565b6000819050919050565b6000819050919050565b600062000298620002926200028c8462000263565b6200026d565b62000263565b9050919050565b6000819050919050565b620002b48362000277565b620002cc620002c3826200029f565b8484546200020d565b825550505050565b600090565b620002e3620002d4565b620002f0818484620002a9565b505050565b5b8181101562000318576200030c600082620002d9565b600181019050620002f6565b5050565b601f82111562000367576200033181620001db565b6200033c84620001f0565b810160208510156200034c578190505b620003646200035b85620001f0565b830182620002f5565b50505b505050565b600082821c905092915050565b60006200038c600019846008026200036c565b1980831691505092915050565b6000620003a7838362000379565b9150826002028217905092915050565b620003c2826200013d565b67ffffffffffffffff811115620003de57620003dd62000148565b5b620003ea8254620001a6565b620003f78282856200031c565b600060209050601f8311600181146200042f57600084156200041a578287015190505b62000426858262000399565b86555062000496565b601f1984166200043f86620001db565b60005b82811015620004695784890151825560018201915060208501945060208101905062000442565b8683101562000489578489015162000485601f89168262000379565b8355505b6001600288020188555050505b505050505050565b612f1180620004ae6000396000f3fe608060405234801561001057600080fd5b50600436106100b35760003560e01c80638da5cb5b116100715780638da5cb5b1461019e578063a22cb465146101bc578063a4b645eb146101d8578063e985e9c5146101f4578063f242432a14610224578063f2fde38b14610240576100b3565b8062fdd58e146100b857806301ffc9a7146100e85780630e89341c146101185780632eb2c2d6146101485780634e1273f414610164578063715018a614610194575b600080fd5b6100d260048036038101906100cd9190611820565b61025c565b6040516100df919061186f565b60405180910390f35b61010260048036038101906100fd91906118e2565b610324565b60405161010f919061192a565b60405180910390f35b610132600480360381019061012d9190611945565b610406565b60405161013f9190611a02565b60405180910390f35b610162600480360381019061015d9190611c21565b61049a565b005b61017e60048036038101906101799190611db3565b61053b565b60405161018b9190611ee9565b60405180910390f35b61019c610654565b005b6101a6610668565b6040516101b39190611f1a565b60405180910390f35b6101d660048036038101906101d19190611f61565b610692565b005b6101f260048036038101906101ed9190612042565b6106a8565b005b61020e600480360381019061020991906120f5565b6106c4565b60405161021b919061192a565b60405180910390f35b61023e60048036038101906102399190612135565b610758565b005b61025a600480360381019061025591906121cc565b6107f9565b005b60008073ffffffffffffffffffffffffffffffffffffffff168373ffffffffffffffffffffffffffffffffffffffff16036102cc576040517f08c379a00000000000000000000000000000000000000000000000000000000081526004016102c39061226b565b60405180910390fd5b60008083815260200190815260200160002060008473ffffffffffffffffffffffffffffffffffffffff1673ffffffffffffffffffffffffffffffffffffffff16815260200190815260200160002054905092915050565b60007fd9b67a26000000000000000000000000000000000000000000000000000000007bffffffffffffffffffffffffffffffffffffffffffffffffffffffff1916827bffffffffffffffffffffffffffffffffffffffffffffffffffffffff191614806103ef57507f0e89341c000000000000000000000000000000000000000000000000000000007bffffffffffffffffffffffffffffffffffffffffffffffffffffffff1916827bffffffffffffffffffffffffffffffffffffffffffffffffffffffff1916145b806103ff57506103fe8261087c565b5b9050919050565b606060028054610415906122ba565b80601f0160208091040260200160405190810160405280929190818152602001828054610441906122ba565b801561048e5780601f106104635761010080835404028352916020019161048e565b820191906000526020600020905b81548152906001019060200180831161047157829003601f168201915b50505050509050919050565b6104a26108e6565b73ffffffffffffffffffffffffffffffffffffffff168573ffffffffffffffffffffffffffffffffffffffff1614806104e857506104e7856104e26108e6565b6106c4565b5b610527576040517f08c379a000000000000000000000000000000000000000000000000000000000815260040161051e9061235d565b60405180910390fd5b61053485858585856108ee565b5050505050565b60608151835114610581576040517f08c379a0000000000000000000000000000000000000000000000000000000008152600401610578906123ef565b60405180910390fd5b6000835167ffffffffffffffff81111561059e5761059d611a29565b5b6040519080825280602002602001820160405280156105cc5781602001602082028036833780820191505090505b50905060005b8451811015610649576106198582815181106105f1576105f061240f565b5b602002602001015185838151811061060c5761060b61240f565b5b602002602001015161025c565b82828151811061062c5761062b61240f565b5b602002602001018181525050806106429061246d565b90506105d2565b508091505092915050565b61065c610c0f565b6106666000610c8d565b565b6000600360009054906101000a900473ffffffffffffffffffffffffffffffffffffffff16905090565b6106a461069d6108e6565b8383610d53565b5050565b6106b485858584610ebf565b6106bd8261106f565b5050505050565b6000600160008473ffffffffffffffffffffffffffffffffffffffff1673ffffffffffffffffffffffffffffffffffffffff16815260200190815260200160002060008373ffffffffffffffffffffffffffffffffffffffff1673ffffffffffffffffffffffffffffffffffffffff16815260200190815260200160002060009054906101000a900460ff16905092915050565b6107606108e6565b73ffffffffffffffffffffffffffffffffffffffff168573ffffffffffffffffffffffffffffffffffffffff1614806107a657506107a5856107a06108e6565b6106c4565b5b6107e5576040517f08c379a00000000000000000000000000000000000000000000000000000000081526004016107dc9061235d565b60405180910390fd5b6107f28585858585611082565b5050505050565b610801610c0f565b600073ffffffffffffffffffffffffffffffffffffffff168173ffffffffffffffffffffffffffffffffffffffff1603610870576040517f08c379a000000000000000000000000000000000000000000000000000000000815260040161086790612527565b60405180910390fd5b61087981610c8d565b50565b60007f01ffc9a7000000000000000000000000000000000000000000000000000000007bffffffffffffffffffffffffffffffffffffffffffffffffffffffff1916827bffffffffffffffffffffffffffffffffffffffffffffffffffffffff1916149050919050565b600033905090565b8151835114610932576040517f08c379a0000000000000000000000000000000000000000000000000000000008152600401610929906125b9565b60405180910390fd5b600073ffffffffffffffffffffffffffffffffffffffff168473ffffffffffffffffffffffffffffffffffffffff16036109a1576040517f08c379a00000000000000000000000000000000000000000000000000000000081526004016109989061264b565b60405180910390fd5b60006109ab6108e6565b90506109bb81878787878761131d565b60005b8451811015610b6c5760008582815181106109dc576109db61240f565b5b6020026020010151905060008583815181106109fb576109fa61240f565b5b60200260200101519050600080600084815260200190815260200160002060008b73ffffffffffffffffffffffffffffffffffffffff1673ffffffffffffffffffffffffffffffffffffffff16815260200190815260200160002054905081811015610a9c576040517f08c379a0000000000000000000000000000000000000000000000000000000008152600401610a93906126dd565b60405180910390fd5b81810360008085815260200190815260200160002060008c73ffffffffffffffffffffffffffffffffffffffff1673ffffffffffffffffffffffffffffffffffffffff168152602001908152602001600020819055508160008085815260200190815260200160002060008b73ffffffffffffffffffffffffffffffffffffffff1673ffffffffffffffffffffffffffffffffffffffff1681526020019081526020016000206000828254610b5191906126fd565b9250508190555050505080610b659061246d565b90506109be565b508473ffffffffffffffffffffffffffffffffffffffff168673ffffffffffffffffffffffffffffffffffffffff168273ffffffffffffffffffffffffffffffffffffffff167f4a39dc06d4c0dbc64b70af90fd698a233a518aa5d07e595d983b8c0526c8f7fb8787604051610be3929190612731565b60405180910390a4610bf9818787878787611325565b610c0781878787878761132d565b505050505050565b610c176108e6565b73ffffffffffffffffffffffffffffffffffffffff16610c35610668565b73ffffffffffffffffffffffffffffffffffffffff1614610c8b576040517f08c379a0000000000000000000000000000000000000000000000000000000008152600401610c82906127b4565b60405180910390fd5b565b6000600360009054906101000a900473ffffffffffffffffffffffffffffffffffffffff16905081600360006101000a81548173ffffffffffffffffffffffffffffffffffffffff021916908373ffffffffffffffffffffffffffffffffffffffff1602179055508173ffffffffffffffffffffffffffffffffffffffff168173ffffffffffffffffffffffffffffffffffffffff167f8be0079c531659141344cd1fd0a4f28419497f9722a3daafe3b4186f6b6457e060405160405180910390a35050565b8173ffffffffffffffffffffffffffffffffffffffff168373ffffffffffffffffffffffffffffffffffffffff1603610dc1576040517f08c379a0000000000000000000000000000000000000000000000000000000008152600401610db890612846565b60405180910390fd5b80600160008573ffffffffffffffffffffffffffffffffffffffff1673ffffffffffffffffffffffffffffffffffffffff16815260200190815260200160002060008473ffffffffffffffffffffffffffffffffffffffff1673ffffffffffffffffffffffffffffffffffffffff16815260200190815260200160002060006101000a81548160ff0219169083151502179055508173ffffffffffffffffffffffffffffffffffffffff168373ffffffffffffffffffffffffffffffffffffffff167f17307eab39ab6107e8899845ad3d59bd9653f200f220920489ca2b5937696c3183604051610eb2919061192a565b60405180910390a3505050565b600073ffffffffffffffffffffffffffffffffffffffff168473ffffffffffffffffffffffffffffffffffffffff1603610f2e576040517f08c379a0000000000000000000000000000000000000000000000000000000008152600401610f25906128d8565b60405180910390fd5b6000610f386108e6565b90506000610f4585611504565b90506000610f5285611504565b9050610f638360008985858961131d565b8460008088815260200190815260200160002060008973ffffffffffffffffffffffffffffffffffffffff1673ffffffffffffffffffffffffffffffffffffffff1681526020019081526020016000206000828254610fc291906126fd565b925050819055508673ffffffffffffffffffffffffffffffffffffffff16600073ffffffffffffffffffffffffffffffffffffffff168473ffffffffffffffffffffffffffffffffffffffff167fc3d58168c5ae7397731d063d5bbf3d657854427343f4c083240f7aacaa2d0f6289896040516110409291906128f8565b60405180910390a461105783600089858589611325565b6110668360008989898961157e565b50505050505050565b806002908161107e9190612acd565b5050565b600073ffffffffffffffffffffffffffffffffffffffff168473ffffffffffffffffffffffffffffffffffffffff16036110f1576040517f08c379a00000000000000000000000000000000000000000000000000000000081526004016110e89061264b565b60405180910390fd5b60006110fb6108e6565b9050600061110885611504565b9050600061111585611504565b905061112583898985858961131d565b600080600088815260200190815260200160002060008a73ffffffffffffffffffffffffffffffffffffffff1673ffffffffffffffffffffffffffffffffffffffff168152602001908152602001600020549050858110156111bc576040517f08c379a00000000000000000000000000000000000000000000000000000000081526004016111b3906126dd565b60405180910390fd5b85810360008089815260200190815260200160002060008b73ffffffffffffffffffffffffffffffffffffffff1673ffffffffffffffffffffffffffffffffffffffff168152602001908152602001600020819055508560008089815260200190815260200160002060008a73ffffffffffffffffffffffffffffffffffffffff1673ffffffffffffffffffffffffffffffffffffffff168152602001908152602001600020600082825461127191906126fd565b925050819055508773ffffffffffffffffffffffffffffffffffffffff168973ffffffffffffffffffffffffffffffffffffffff168573ffffffffffffffffffffffffffffffffffffffff167fc3d58168c5ae7397731d063d5bbf3d657854427343f4c083240f7aacaa2d0f628a8a6040516112ee9291906128f8565b60405180910390a4611304848a8a86868a611325565b611312848a8a8a8a8a61157e565b505050505050505050565b505050505050565b505050505050565b61134c8473ffffffffffffffffffffffffffffffffffffffff16611755565b156114fc578373ffffffffffffffffffffffffffffffffffffffff1663bc197c8187878686866040518663ffffffff1660e01b8152600401611392959493929190612bf4565b6020604051808303816000875af19250505080156113ce57506040513d601f19601f820116820180604052508101906113cb9190612c71565b60015b611473576113da612cab565b806308c379a00361143657506113ee612ccd565b806113f95750611438565b806040517f08c379a000000000000000000000000000000000000000000000000000000000815260040161142d9190611a02565b60405180910390fd5b505b6040517f08c379a000000000000000000000000000000000000000000000000000000000815260040161146a90612dcf565b60405180910390fd5b63bc197c8160e01b7bffffffffffffffffffffffffffffffffffffffffffffffffffffffff1916817bffffffffffffffffffffffffffffffffffffffffffffffffffffffff1916146114fa576040517f08c379a00000000000000000000000000000000000000000000000000000000081526004016114f190612e61565b60405180910390fd5b505b505050505050565b60606000600167ffffffffffffffff81111561152357611522611a29565b5b6040519080825280602002602001820160405280156115515781602001602082028036833780820191505090505b50905082816000815181106115695761156861240f565b5b60200260200101818152505080915050919050565b61159d8473ffffffffffffffffffffffffffffffffffffffff16611755565b1561174d578373ffffffffffffffffffffffffffffffffffffffff1663f23a6e6187878686866040518663ffffffff1660e01b81526004016115e3959493929190612e81565b6020604051808303816000875af192505050801561161f57506040513d601f19601f8201168201806040525081019061161c9190612c71565b60015b6116c45761162b612cab565b806308c379a003611687575061163f612ccd565b8061164a5750611689565b806040517f08c379a000000000000000000000000000000000000000000000000000000000815260040161167e9190611a02565b60405180910390fd5b505b6040517f08c379a00000000000000000000000000000000000000000000000000000000081526004016116bb90612dcf565b60405180910390fd5b63f23a6e6160e01b7bffffffffffffffffffffffffffffffffffffffffffffffffffffffff1916817bffffffffffffffffffffffffffffffffffffffffffffffffffffffff19161461174b576040517f08c379a000000000000000000000000000000000000000000000000000000000815260040161174290612e61565b60405180910390fd5b505b505050505050565b6000808273ffffffffffffffffffffffffffffffffffffffff163b119050919050565b6000604051905090565b600080fd5b600080fd5b600073ffffffffffffffffffffffffffffffffffffffff82169050919050565b60006117b78261178c565b9050919050565b6117c7816117ac565b81146117d257600080fd5b50565b6000813590506117e4816117be565b92915050565b6000819050919050565b6117fd816117ea565b811461180857600080fd5b50565b60008135905061181a816117f4565b92915050565b6000806040838503121561183757611836611782565b5b6000611845858286016117d5565b92505060206118568582860161180b565b9150509250929050565b611869816117ea565b82525050565b60006020820190506118846000830184611860565b92915050565b60007fffffffff0000000000000000000000000000000000000000000000000000000082169050919050565b6118bf8161188a565b81146118ca57600080fd5b50565b6000813590506118dc816118b6565b92915050565b6000602082840312156118f8576118f7611782565b5b6000611906848285016118cd565b91505092915050565b60008115159050919050565b6119248161190f565b82525050565b600060208201905061193f600083018461191b565b92915050565b60006020828403121561195b5761195a611782565b5b60006119698482850161180b565b91505092915050565b600081519050919050565b600082825260208201905092915050565b60005b838110156119ac578082015181840152602081019050611991565b60008484015250505050565b6000601f19601f8301169050919050565b60006119d482611972565b6119de818561197d565b93506119ee81856020860161198e565b6119f7816119b8565b840191505092915050565b60006020820190508181036000830152611a1c81846119c9565b905092915050565b600080fd5b7f4e487b7100000000000000000000000000000000000000000000000000000000600052604160045260246000fd5b611a61826119b8565b810181811067ffffffffffffffff82111715611a8057611a7f611a29565b5b80604052505050565b6000611a93611778565b9050611a9f8282611a58565b919050565b600067ffffffffffffffff821115611abf57611abe611a29565b5b602082029050602081019050919050565b600080fd5b6000611ae8611ae384611aa4565b611a89565b90508083825260208201905060208402830185811115611b0b57611b0a611ad0565b5b835b81811015611b345780611b20888261180b565b845260208401935050602081019050611b0d565b5050509392505050565b600082601f830112611b5357611b52611a24565b5b8135611b63848260208601611ad5565b91505092915050565b600080fd5b600067ffffffffffffffff821115611b8c57611b8b611a29565b5b611b95826119b8565b9050602081019050919050565b82818337600083830152505050565b6000611bc4611bbf84611b71565b611a89565b905082815260208101848484011115611be057611bdf611b6c565b5b611beb848285611ba2565b509392505050565b600082601f830112611c0857611c07611a24565b5b8135611c18848260208601611bb1565b91505092915050565b600080600080600060a08688031215611c3d57611c3c611782565b5b6000611c4b888289016117d5565b9550506020611c5c888289016117d5565b945050604086013567ffffffffffffffff811115611c7d57611c7c611787565b5b611c8988828901611b3e565b935050606086013567ffffffffffffffff811115611caa57611ca9611787565b5b611cb688828901611b3e565b925050608086013567ffffffffffffffff811115611cd757611cd6611787565b5b611ce388828901611bf3565b9150509295509295909350565b600067ffffffffffffffff821115611d0b57611d0a611a29565b5b602082029050602081019050919050565b6000611d2f611d2a84611cf0565b611a89565b90508083825260208201905060208402830185811115611d5257611d51611ad0565b5b835b81811015611d7b5780611d6788826117d5565b845260208401935050602081019050611d54565b5050509392505050565b600082601f830112611d9a57611d99611a24565b5b8135611daa848260208601611d1c565b91505092915050565b60008060408385031215611dca57611dc9611782565b5b600083013567ffffffffffffffff811115611de857611de7611787565b5b611df485828601611d85565b925050602083013567ffffffffffffffff811115611e1557611e14611787565b5b611e2185828601611b3e565b9150509250929050565b600081519050919050565b600082825260208201905092915050565b6000819050602082019050919050565b611e60816117ea565b82525050565b6000611e728383611e57565b60208301905092915050565b6000602082019050919050565b6000611e9682611e2b565b611ea08185611e36565b9350611eab83611e47565b8060005b83811015611edc578151611ec38882611e66565b9750611ece83611e7e565b925050600181019050611eaf565b5085935050505092915050565b60006020820190508181036000830152611f038184611e8b565b905092915050565b611f14816117ac565b82525050565b6000602082019050611f2f6000830184611f0b565b92915050565b611f3e8161190f565b8114611f4957600080fd5b50565b600081359050611f5b81611f35565b92915050565b60008060408385031215611f7857611f77611782565b5b6000611f86858286016117d5565b9250506020611f9785828601611f4c565b9150509250929050565b600067ffffffffffffffff821115611fbc57611fbb611a29565b5b611fc5826119b8565b9050602081019050919050565b6000611fe5611fe084611fa1565b611a89565b90508281526020810184848401111561200157612000611b6c565b5b61200c848285611ba2565b509392505050565b600082601f83011261202957612028611a24565b5b8135612039848260208601611fd2565b91505092915050565b600080600080600060a0868803121561205e5761205d611782565b5b600061206c888289016117d5565b955050602061207d8882890161180b565b945050604061208e8882890161180b565b935050606086013567ffffffffffffffff8111156120af576120ae611787565b5b6120bb88828901612014565b925050608086013567ffffffffffffffff8111156120dc576120db611787565b5b6120e888828901611bf3565b9150509295509295909350565b6000806040838503121561210c5761210b611782565b5b600061211a858286016117d5565b925050602061212b858286016117d5565b9150509250929050565b600080600080600060a0868803121561215157612150611782565b5b600061215f888289016117d5565b9550506020612170888289016117d5565b94505060406121818882890161180b565b93505060606121928882890161180b565b925050608086013567ffffffffffffffff8111156121b3576121b2611787565b5b6121bf88828901611bf3565b9150509295509295909350565b6000602082840312156121e2576121e1611782565b5b60006121f0848285016117d5565b91505092915050565b7f455243313135353a2061646472657373207a65726f206973206e6f742061207660008201527f616c6964206f776e657200000000000000000000000000000000000000000000602082015250565b6000612255602a8361197d565b9150612260826121f9565b604082019050919050565b6000602082019050818103600083015261228481612248565b9050919050565b7f4e487b7100000000000000000000000000000000000000000000000000000000600052602260045260246000fd5b600060028204905060018216806122d257607f821691505b6020821081036122e5576122e461228b565b5b50919050565b7f455243313135353a2063616c6c6572206973206e6f7420746f6b656e206f776e60008201527f6572206f7220617070726f766564000000000000000000000000000000000000602082015250565b6000612347602e8361197d565b9150612352826122eb565b604082019050919050565b600060208201905081810360008301526123768161233a565b9050919050565b7f455243313135353a206163636f756e747320616e6420696473206c656e67746860008201527f206d69736d617463680000000000000000000000000000000000000000000000602082015250565b60006123d960298361197d565b91506123e48261237d565b604082019050919050565b60006020820190508181036000830152612408816123cc565b9050919050565b7f4e487b7100000000000000000000000000000000000000000000000000000000600052603260045260246000fd5b7f4e487b7100000000000000000000000000000000000000000000000000000000600052601160045260246000fd5b6000612478826117ea565b91507fffffffffffffffffffffffffffffffffffffffffffffffffffffffffffffffff82036124aa576124a961243e565b5b600182019050919050565b7f4f776e61626c653a206e6577206f776e657220697320746865207a65726f206160008201527f6464726573730000000000000000000000000000000000000000000000000000602082015250565b600061251160268361197d565b915061251c826124b5565b604082019050919050565b6000602082019050818103600083015261254081612504565b9050919050565b7f455243313135353a2069647320616e6420616d6f756e7473206c656e6774682060008201527f6d69736d61746368000000000000000000000000000000000000000000000000602082015250565b60006125a360288361197d565b91506125ae82612547565b604082019050919050565b600060208201905081810360008301526125d281612596565b9050919050565b7f455243313135353a207472616e7366657220746f20746865207a65726f20616460008201527f6472657373000000000000000000000000000000000000000000000000000000602082015250565b600061263560258361197d565b9150612640826125d9565b604082019050919050565b6000602082019050818103600083015261266481612628565b9050919050565b7f455243313135353a20696e73756666696369656e742062616c616e636520666f60008201527f72207472616e7366657200000000000000000000000000000000000000000000602082015250565b60006126c7602a8361197d565b91506126d28261266b565b604082019050919050565b600060208201905081810360008301526126f6816126ba565b9050919050565b6000612708826117ea565b9150612713836117ea565b925082820190508082111561272b5761272a61243e565b5b92915050565b6000604082019050818103600083015261274b8185611e8b565b9050818103602083015261275f8184611e8b565b90509392505050565b7f4f776e61626c653a2063616c6c6572206973206e6f7420746865206f776e6572600082015250565b600061279e60208361197d565b91506127a982612768565b602082019050919050565b600060208201905081810360008301526127cd81612791565b9050919050565b7f455243313135353a2073657474696e6720617070726f76616c2073746174757360008201527f20666f722073656c660000000000000000000000000000000000000000000000602082015250565b600061283060298361197d565b915061283b826127d4565b604082019050919050565b6000602082019050818103600083015261285f81612823565b9050919050565b7f455243313135353a206d696e7420746f20746865207a65726f2061646472657360008201527f7300000000000000000000000000000000000000000000000000000000000000602082015250565b60006128c260218361197d565b91506128cd82612866565b604082019050919050565b600060208201905081810360008301526128f1816128b5565b9050919050565b600060408201905061290d6000830185611860565b61291a6020830184611860565b9392505050565b60008190508160005260206000209050919050565b60006020601f8301049050919050565b600082821b905092915050565b6000600883026129837fffffffffffffffffffffffffffffffffffffffffffffffffffffffffffffffff82612946565b61298d8683612946565b95508019841693508086168417925050509392505050565b6000819050919050565b60006129ca6129c56129c0846117ea565b6129a5565b6117ea565b9050919050565b6000819050919050565b6129e4836129af565b6129f86129f0826129d1565b848454612953565b825550505050565b600090565b612a0d612a00565b612a188184846129db565b505050565b5b81811015612a3c57612a31600082612a05565b600181019050612a1e565b5050565b601f821115612a8157612a5281612921565b612a5b84612936565b81016020851015612a6a578190505b612a7e612a7685612936565b830182612a1d565b50505b505050565b600082821c905092915050565b6000612aa460001984600802612a86565b1980831691505092915050565b6000612abd8383612a93565b9150826002028217905092915050565b612ad682611972565b67ffffffffffffffff811115612aef57612aee611a29565b5b612af982546122ba565b612b04828285612a40565b600060209050601f831160018114612b375760008415612b25578287015190505b612b2f8582612ab1565b865550612b97565b601f198416612b4586612921565b60005b82811015612b6d57848901518255600182019150602085019450602081019050612b48565b86831015612b8a5784890151612b86601f891682612a93565b8355505b6001600288020188555050505b505050505050565b600081519050919050565b600082825260208201905092915050565b6000612bc682612b9f565b612bd08185612baa565b9350612be081856020860161198e565b612be9816119b8565b840191505092915050565b600060a082019050612c096000830188611f0b565b612c166020830187611f0b565b8181036040830152612c288186611e8b565b90508181036060830152612c3c8185611e8b565b90508181036080830152612c508184612bbb565b90509695505050505050565b600081519050612c6b816118b6565b92915050565b600060208284031215612c8757612c86611782565b5b6000612c9584828501612c5c565b91505092915050565b60008160e01c9050919050565b600060033d1115612cca5760046000803e612cc7600051612c9e565b90505b90565b600060443d10612d5a57612cdf611778565b60043d036004823e80513d602482011167ffffffffffffffff82111715612d07575050612d5a565b808201805167ffffffffffffffff811115612d255750505050612d5a565b80602083010160043d038501811115612d42575050505050612d5a565b612d5182602001850186611a58565b82955050505050505b90565b7f455243313135353a207472616e7366657220746f206e6f6e2d4552433131353560008201527f526563656976657220696d706c656d656e746572000000000000000000000000602082015250565b6000612db960348361197d565b9150612dc482612d5d565b604082019050919050565b60006020820190508181036000830152612de881612dac565b9050919050565b7f455243313135353a204552433131353552656365697665722072656a6563746560008201527f6420746f6b656e73000000000000000000000000000000000000000000000000602082015250565b6000612e4b60288361197d565b9150612e5682612def565b604082019050919050565b60006020820190508181036000830152612e7a81612e3e565b9050919050565b600060a082019050612e966000830188611f0b565b612ea36020830187611f0b565b612eb06040830186611860565b612ebd6060830185611860565b8181036080830152612ecf8184612bbb565b9050969550505050505056fea2646970667358221220d4170b34a5e6efc3ce4c76d3ac972e842a6d5ee2c81080f93858d30055c50bdc64736f6c63430008110033",
  "linkReferences": {},
  "deployedLinkReferences": {}
}