{
  "_format": "hh-sol-artifact-1",
  "contractName": "Escrow",
  "sourceName": "contracts/Escrow.sol",
  "abi": [
    {
      "inputs": [
        {
          "internalType": "address",
          "name": "_reToken",
          "type": "address"
        },
        {
          "internalType": "address",
          "name": "_myRealEstate",
          "type": "address"
        }
      ],
      "stateMutability": "nonpayable",
      "type": "constructor"
    },
    {
      "inputs": [
        {
          "internalType": "uint256",
          "name": "_nftTokenId",
          "type": "uint256"
        },
        {
          "internalType": "address",
          "name": "_seller",
          "type": "address"
        },
        {
          "internalType": "address",
          "name": "_buyer",
          "type": "address"
        },
        {
          "internalType": "uint256",
          "name": "_amount",
          "type": "uint256"
        },
        {
          "internalType": "bytes",
          "name": "_data",
          "type": "bytes"
        }
      ],
      "name": "sellProperty",
      "outputs": [],
      "stateMutability": "nonpayable",
      "type": "function"
    }
  ],
  "bytecode": "0x60806040523480156200001157600080fd5b5060405162000f8938038062000f8983398181016040528101906200003791906200012a565b816000806101000a81548173ffffffffffffffffffffffffffffffffffffffff021916908373ffffffffffffffffffffffffffffffffffffffff16021790555080600160006101000a81548173ffffffffffffffffffffffffffffffffffffffff021916908373ffffffffffffffffffffffffffffffffffffffff160217905550505062000171565b600080fd5b600073ffffffffffffffffffffffffffffffffffffffff82169050919050565b6000620000f282620000c5565b9050919050565b6200010481620000e5565b81146200011057600080fd5b50565b6000815190506200012481620000f9565b92915050565b60008060408385031215620001445762000143620000c0565b5b6000620001548582860162000113565b9250506020620001678582860162000113565b9150509250929050565b610e0880620001816000396000f3fe608060405234801561001057600080fd5b506004361061002b5760003560e01c8063680399f914610030575b600080fd5b61004a600480360381019061004591906107c1565b61004c565b005b6000600160009054906101000a900473ffffffffffffffffffffffffffffffffffffffff1673ffffffffffffffffffffffffffffffffffffffff16630789752c876040518263ffffffff1660e01b81526004016100a99190610867565b602060405180830381865afa1580156100c6573d6000803e3d6000fd5b505050506040513d601f19601f820116820180604052508101906100ea9190610897565b90506000600160009054906101000a900473ffffffffffffffffffffffffffffffffffffffff1673ffffffffffffffffffffffffffffffffffffffff1663e34fc531886040518263ffffffff1660e01b81526004016101499190610867565b602060405180830381865afa158015610166573d6000803e3d6000fd5b505050506040513d601f19601f8201168201806040525081019061018a91906108d9565b90506000600160009054906101000a900473ffffffffffffffffffffffffffffffffffffffff1673ffffffffffffffffffffffffffffffffffffffff1663ce7acb98896040518263ffffffff1660e01b81526004016101e99190610867565b602060405180830381865afa158015610206573d6000803e3d6000fd5b505050506040513d601f19601f8201168201806040525081019061022a919061093e565b90506000600160009054906101000a900473ffffffffffffffffffffffffffffffffffffffff1673ffffffffffffffffffffffffffffffffffffffff16632e3f1817886040518263ffffffff1660e01b8152600401610289919061097a565b602060405180830381865afa1580156102a6573d6000803e3d6000fd5b505050506040513d601f19601f820116820180604052508101906102ca9190610897565b90508773ffffffffffffffffffffffffffffffffffffffff168373ffffffffffffffffffffffffffffffffffffffff161461033a576040517f08c379a000000000000000000000000000000000000000000000000000000000815260040161033190610a18565b60405180910390fd5b600073ffffffffffffffffffffffffffffffffffffffff168773ffffffffffffffffffffffffffffffffffffffff16036103a9576040517f08c379a00000000000000000000000000000000000000000000000000000000081526004016103a090610aaa565b60405180910390fd5b8273ffffffffffffffffffffffffffffffffffffffff168773ffffffffffffffffffffffffffffffffffffffff1603610417576040517f08c379a000000000000000000000000000000000000000000000000000000000815260040161040e90610b3c565b60405180910390fd5b600115158215151461045e576040517f08c379a000000000000000000000000000000000000000000000000000000000815260040161045590610ba8565b60405180910390fd5b838110156104a1576040517f08c379a000000000000000000000000000000000000000000000000000000000815260040161049890610c3a565b60405180910390fd5b60008054906101000a900473ffffffffffffffffffffffffffffffffffffffff1673ffffffffffffffffffffffffffffffffffffffff1663f242432a888a6000888a6040518663ffffffff1660e01b8152600401610503959493929190610d1e565b600060405180830381600087803b15801561051d57600080fd5b505af1158015610531573d6000803e3d6000fd5b5050505060008054906101000a900473ffffffffffffffffffffffffffffffffffffffff1673ffffffffffffffffffffffffffffffffffffffff1663f242432a89898c8a8a6040518663ffffffff1660e01b8152600401610596959493929190610d78565b600060405180830381600087803b1580156105b057600080fd5b505af11580156105c4573d6000803e3d6000fd5b50505050505050505050505050565b6000604051905090565b600080fd5b600080fd5b6000819050919050565b6105fa816105e7565b811461060557600080fd5b50565b600081359050610617816105f1565b92915050565b600073ffffffffffffffffffffffffffffffffffffffff82169050919050565b60006106488261061d565b9050919050565b6106588161063d565b811461066357600080fd5b50565b6000813590506106758161064f565b92915050565b600080fd5b600080fd5b6000601f19601f8301169050919050565b7f4e487b7100000000000000000000000000000000000000000000000000000000600052604160045260246000fd5b6106ce82610685565b810181811067ffffffffffffffff821117156106ed576106ec610696565b5b80604052505050565b60006107006105d3565b905061070c82826106c5565b919050565b600067ffffffffffffffff82111561072c5761072b610696565b5b61073582610685565b9050602081019050919050565b82818337600083830152505050565b600061076461075f84610711565b6106f6565b9050828152602081018484840111156107805761077f610680565b5b61078b848285610742565b509392505050565b600082601f8301126107a8576107a761067b565b5b81356107b8848260208601610751565b91505092915050565b600080600080600060a086880312156107dd576107dc6105dd565b5b60006107eb88828901610608565b95505060206107fc88828901610666565b945050604061080d88828901610666565b935050606061081e88828901610608565b925050608086013567ffffffffffffffff81111561083f5761083e6105e2565b5b61084b88828901610793565b9150509295509295909350565b610861816105e7565b82525050565b600060208201905061087c6000830184610858565b92915050565b600081519050610891816105f1565b92915050565b6000602082840312156108ad576108ac6105dd565b5b60006108bb84828501610882565b91505092915050565b6000815190506108d38161064f565b92915050565b6000602082840312156108ef576108ee6105dd565b5b60006108fd848285016108c4565b91505092915050565b60008115159050919050565b61091b81610906565b811461092657600080fd5b50565b60008151905061093881610912565b92915050565b600060208284031215610954576109536105dd565b5b600061096284828501610929565b91505092915050565b6109748161063d565b82525050565b600060208201905061098f600083018461096b565b92915050565b600082825260208201905092915050565b7f53656c6c657220646f6573206e6f74206f776e73207468652070726f7065727460008201527f7900000000000000000000000000000000000000000000000000000000000000602082015250565b6000610a02602183610995565b9150610a0d826109a6565b604082019050919050565b60006020820190508181036000830152610a31816109f5565b9050919050565b7f455243313135353a2061646472657373207a65726f206973206e6f742061207660008201527f616c6964206163636f756e740000000000000000000000000000000000000000602082015250565b6000610a94602c83610995565b9150610a9f82610a38565b604082019050919050565b60006020820190508181036000830152610ac381610a87565b9050919050565b7f455243313135353a20427579657220697320616c7265616479206f776e73207460008201527f68652070726f7065727479000000000000000000000000000000000000000000602082015250565b6000610b26602b83610995565b9150610b3182610aca565b604082019050919050565b60006020820190508181036000830152610b5581610b19565b9050919050565b7f50726f7065727479206973206e6f7420666f722053616c650000000000000000600082015250565b6000610b92601883610995565b9150610b9d82610b5c565b602082019050919050565b60006020820190508181036000830152610bc181610b85565b9050919050565b7f427579657220646f6573206e6f7420686176652073756666696369656e74206260008201527f616c616e636520746f20627579207468652070726f7065727479000000000000602082015250565b6000610c24603a83610995565b9150610c2f82610bc8565b604082019050919050565b60006020820190508181036000830152610c5381610c17565b9050919050565b6000819050919050565b6000819050919050565b6000610c89610c84610c7f84610c5a565b610c64565b6105e7565b9050919050565b610c9981610c6e565b82525050565b600081519050919050565b600082825260208201905092915050565b60005b83811015610cd9578082015181840152602081019050610cbe565b60008484015250505050565b6000610cf082610c9f565b610cfa8185610caa565b9350610d0a818560208601610cbb565b610d1381610685565b840191505092915050565b600060a082019050610d33600083018861096b565b610d40602083018761096b565b610d4d6040830186610c90565b610d5a6060830185610858565b8181036080830152610d6c8184610ce5565b90509695505050505050565b600060a082019050610d8d600083018861096b565b610d9a602083018761096b565b610da76040830186610858565b610db46060830185610858565b8181036080830152610dc68184610ce5565b9050969550505050505056fea264697066735822122015ddc41a2452acb6386af49605d800d854d4e089fdf7ea54cb182087c62d97ff64736f6c63430008110033",
  "linkReferences": {},
  "deployedLinkReferences": {}
}