{
  "_format": "hh-sol-artifact-1",
  "contractName": "MyRealEstate",
  "sourceName": "contracts/MyRealEstate.sol",
  "abi": [
    {
      "inputs": [
        {
          "internalType": "address",
          "name": "_reTokenAddress",
          "type": "address"
        }
      ],
      "stateMutability": "nonpayable",
      "type": "constructor"
    },
    {
      "anonymous": false,
      "inputs": [
        {
          "indexed": false,
          "internalType": "uint256",
          "name": "id",
          "type": "uint256"
        },
        {
          "indexed": false,
          "internalType": "string",
          "name": "tokenURI",
          "type": "string"
        },
        {
          "indexed": false,
          "internalType": "address",
          "name": "owner",
          "type": "address"
        },
        {
          "indexed": false,
          "internalType": "uint256",
          "name": "amount",
          "type": "uint256"
        }
      ],
      "name": "ERC20TokenMinted",
      "type": "event"
    },
    {
      "anonymous": false,
      "inputs": [
        {
          "indexed": false,
          "internalType": "uint256",
          "name": "tokenId",
          "type": "uint256"
        },
        {
          "indexed": false,
          "internalType": "uint256",
          "name": "amount",
          "type": "uint256"
        },
        {
          "indexed": false,
          "internalType": "address",
          "name": "buyer",
          "type": "address"
        },
        {
          "indexed": false,
          "internalType": "string",
          "name": "UPITxId",
          "type": "string"
        }
      ],
      "name": "ERC20TokensTransferred",
      "type": "event"
    },
    {
      "anonymous": false,
      "inputs": [
        {
          "indexed": false,
          "internalType": "uint256",
          "name": "nftTokenId",
          "type": "uint256"
        },
        {
          "indexed": false,
          "internalType": "uint256",
          "name": "price",
          "type": "uint256"
        },
        {
          "indexed": false,
          "internalType": "bool",
          "name": "isForSale",
          "type": "bool"
        }
      ],
      "name": "PropertyListedForSale",
      "type": "event"
    },
    {
      "anonymous": false,
      "inputs": [
        {
          "indexed": false,
          "internalType": "uint256",
          "name": "tokenId",
          "type": "uint256"
        },
        {
          "indexed": false,
          "internalType": "address",
          "name": "seller",
          "type": "address"
        },
        {
          "indexed": false,
          "internalType": "address",
          "name": "buyer",
          "type": "address"
        },
        {
          "indexed": false,
          "internalType": "uint256",
          "name": "amount",
          "type": "uint256"
        }
      ],
      "name": "PropertyTransferred",
      "type": "event"
    },
    {
      "anonymous": false,
      "inputs": [
        {
          "indexed": false,
          "internalType": "uint256",
          "name": "id",
          "type": "uint256"
        },
        {
          "indexed": false,
          "internalType": "string",
          "name": "tokenURI",
          "type": "string"
        },
        {
          "indexed": false,
          "internalType": "address",
          "name": "owner",
          "type": "address"
        }
      ],
      "name": "RNFTTokenMinted",
      "type": "event"
    },
    {
      "inputs": [
        {
          "internalType": "uint256",
          "name": "_amount",
          "type": "uint256"
        },
        {
          "internalType": "address",
          "name": "_to",
          "type": "address"
        },
        {
          "internalType": "string",
          "name": "_tokenURI",
          "type": "string"
        },
        {
          "internalType": "string",
          "name": "_upiTxId",
          "type": "string"
        }
      ],
      "name": "PurchaseERC20Tokens",
      "outputs": [],
      "stateMutability": "nonpayable",
      "type": "function"
    },
    {
      "inputs": [],
      "name": "_tokenIdCounter",
      "outputs": [
        {
          "internalType": "uint256",
          "name": "_value",
          "type": "uint256"
        }
      ],
      "stateMutability": "view",
      "type": "function"
    },
    {
      "inputs": [
        {
          "internalType": "address",
          "name": "_to",
          "type": "address"
        },
        {
          "internalType": "string",
          "name": "_tokenURI",
          "type": "string"
        }
      ],
      "name": "createNFTToken",
      "outputs": [],
      "stateMutability": "nonpayable",
      "type": "function"
    },
    {
      "inputs": [],
      "name": "getEscrowContractAddress",
      "outputs": [
        {
          "internalType": "address",
          "name": "",
          "type": "address"
        }
      ],
      "stateMutability": "view",
      "type": "function"
    },
    {
      "inputs": [
        {
          "internalType": "uint256",
          "name": "_nftTokenId",
          "type": "uint256"
        }
      ],
      "name": "getPropertyOwner",
      "outputs": [
        {
          "internalType": "address",
          "name": "",
          "type": "address"
        }
      ],
      "stateMutability": "view",
      "type": "function"
    },
    {
      "inputs": [
        {
          "internalType": "uint256",
          "name": "_nftTokenId",
          "type": "uint256"
        }
      ],
      "name": "getPropertyPrice",
      "outputs": [
        {
          "internalType": "uint256",
          "name": "",
          "type": "uint256"
        }
      ],
      "stateMutability": "view",
      "type": "function"
    },
    {
      "inputs": [],
      "name": "getRETokenBalance",
      "outputs": [
        {
          "internalType": "uint256",
          "name": "",
          "type": "uint256"
        }
      ],
      "stateMutability": "view",
      "type": "function"
    },
    {
      "inputs": [
        {
          "internalType": "address",
          "name": "account",
          "type": "address"
        }
      ],
      "name": "getRETokenBalance",
      "outputs": [
        {
          "internalType": "uint256",
          "name": "",
          "type": "uint256"
        }
      ],
      "stateMutability": "view",
      "type": "function"
    },
    {
      "inputs": [
        {
          "internalType": "uint256",
          "name": "_nftTokenId",
          "type": "uint256"
        }
      ],
      "name": "isPropertyForSale",
      "outputs": [
        {
          "internalType": "bool",
          "name": "",
          "type": "bool"
        }
      ],
      "stateMutability": "view",
      "type": "function"
    },
    {
      "inputs": [
        {
          "internalType": "uint256",
          "name": "_nftTokenId",
          "type": "uint256"
        },
        {
          "internalType": "uint256",
          "name": "_price",
          "type": "uint256"
        },
        {
          "internalType": "bool",
          "name": "_isForSale",
          "type": "bool"
        }
      ],
      "name": "listPropertyForSale",
      "outputs": [],
      "stateMutability": "nonpayable",
      "type": "function"
    },
    {
      "inputs": [
        {
          "internalType": "uint256",
          "name": "",
          "type": "uint256"
        }
      ],
      "name": "propertiesForSale",
      "outputs": [
        {
          "internalType": "uint256",
          "name": "price",
          "type": "uint256"
        },
        {
          "internalType": "bool",
          "name": "isForSale",
          "type": "bool"
        }
      ],
      "stateMutability": "view",
      "type": "function"
    },
    {
      "inputs": [
        {
          "internalType": "uint256",
          "name": "_nftTokenId",
          "type": "uint256"
        }
      ],
      "name": "purchaseProperty",
      "outputs": [],
      "stateMutability": "nonpayable",
      "type": "function"
    }
  ],
  "bytecode": "0x60806040523480156200001157600080fd5b50604051620026573803806200265783398181016040528101906200003791906200017c565b6001600080018190555080600160006101000a81548173ffffffffffffffffffffffffffffffffffffffff021916908373ffffffffffffffffffffffffffffffffffffffff1602179055508030604051620000929062000104565b6200009f929190620001bf565b604051809103906000f080158015620000bc573d6000803e3d6000fd5b50600260006101000a81548173ffffffffffffffffffffffffffffffffffffffff021916908373ffffffffffffffffffffffffffffffffffffffff16021790555050620001ec565b610f8980620016ce83390190565b600080fd5b600073ffffffffffffffffffffffffffffffffffffffff82169050919050565b6000620001448262000117565b9050919050565b620001568162000137565b81146200016257600080fd5b50565b60008151905062000176816200014b565b92915050565b60006020828403121562000195576200019462000112565b5b6000620001a58482850162000165565b91505092915050565b620001b98162000137565b82525050565b6000604082019050620001d66000830185620001ae565b620001e56020830184620001ae565b9392505050565b6114d280620001fc6000396000f3fe608060405234801561001057600080fd5b50600436106100b45760003560e01c806379d9c4391161007157806379d9c439146101a257806384c4bd4b146101be578063a8e18901146101dc578063ce7acb98146101f8578063e34fc53114610228578063ec7d567f14610258576100b4565b80630789752c146100b957806319e6f220146100e95780632e3f18171461010757806343170256146101375780635ea6c217146101555780636af562e814610171575b600080fd5b6100d360048036038101906100ce9190610b1b565b610274565b6040516100e09190610b57565b60405180910390f35b6100f1610294565b6040516100fe9190610b57565b60405180910390f35b610121600480360381019061011c9190610bd0565b610339565b60405161012e9190610b57565b60405180910390f35b61013f6103e0565b60405161014c9190610c0c565b60405180910390f35b61016f600480360381019061016a9190610c5f565b61040a565b005b61018b60048036038101906101869190610b1b565b610571565b604051610199929190610cc1565b60405180910390f35b6101bc60048036038101906101b79190610b1b565b6105a2565b005b6101c6610768565b6040516101d39190610b57565b60405180910390f35b6101f660048036038101906101f19190610e30565b610774565b005b610212600480360381019061020d9190610b1b565b6108f9565b60405161021f9190610ecf565b60405180910390f35b610242600480360381019061023d9190610b1b565b610926565b60405161024f9190610c0c565b60405180910390f35b610272600480360381019061026d9190610eea565b610963565b005b600060036000838152602001908152602001600020600001549050919050565b6000600160009054906101000a900473ffffffffffffffffffffffffffffffffffffffff1673ffffffffffffffffffffffffffffffffffffffff1662fdd58e3360006040518363ffffffff1660e01b81526004016102f3929190610f8b565b602060405180830381865afa158015610310573d6000803e3d6000fd5b505050506040513d601f19601f820116820180604052508101906103349190610fc9565b905090565b6000600160009054906101000a900473ffffffffffffffffffffffffffffffffffffffff1673ffffffffffffffffffffffffffffffffffffffff1662fdd58e8360006040518363ffffffff1660e01b8152600401610398929190610f8b565b602060405180830381865afa1580156103b5573d6000803e3d6000fd5b505050506040513d601f19601f820116820180604052508101906103d99190610fc9565b9050919050565b6000600260009054906101000a900473ffffffffffffffffffffffffffffffffffffffff16905090565b60018060009054906101000a900473ffffffffffffffffffffffffffffffffffffffff1673ffffffffffffffffffffffffffffffffffffffff1662fdd58e33866040518363ffffffff1660e01b8152600401610467929190610ff6565b602060405180830381865afa158015610484573d6000803e3d6000fd5b505050506040513d601f19601f820116820180604052508101906104a89190610fc9565b146104e8576040517f08c379a00000000000000000000000000000000000000000000000000000000081526004016104df906110a2565b60405180910390fd5b816003600085815260200190815260200160002060000181905550806003600085815260200190815260200160002060010160006101000a81548160ff0219169083151502179055507f533839d7ef8009a4b7b07f707318e827134404f3ff79d2f2b75d1261161df726838383604051610564939291906110c2565b60405180910390a1505050565b60036020528060005260406000206000915090508060000154908060010160009054906101000a900460ff16905082565b60006004600083815260200190815260200160002060009054906101000a900473ffffffffffffffffffffffffffffffffffffffff169050600060036000848152602001908152602001600020600001549050600260009054906101000a900473ffffffffffffffffffffffffffffffffffffffff1673ffffffffffffffffffffffffffffffffffffffff1663680399f984843360016040518563ffffffff1660e01b8152600401610657949392919061116b565b600060405180830381600087803b15801561067157600080fd5b505af1158015610685573d6000803e3d6000fd5b50505050336004600085815260200190815260200160002060006101000a81548173ffffffffffffffffffffffffffffffffffffffff021916908373ffffffffffffffffffffffffffffffffffffffff1602179055506064600360008581526020019081526020016000206000018190555060006003600085815260200190815260200160002060010160006101000a81548160ff0219169083151502179055507fa57b4707b863fa4d85ff792987d8e13ff99ac4c4f237969e628682fbe257dcb78383338460405161075b94939291906111c3565b60405180910390a1505050565b60008060000154905081565b600073ffffffffffffffffffffffffffffffffffffffff168373ffffffffffffffffffffffffffffffffffffffff16036107e3576040517f08c379a00000000000000000000000000000000000000000000000000000000081526004016107da9061127a565b60405180910390fd5b600160009054906101000a900473ffffffffffffffffffffffffffffffffffffffff1673ffffffffffffffffffffffffffffffffffffffff1663a4b645eb84600087866040518563ffffffff1660e01b81526004016108459493929190611308565b600060405180830381600087803b15801561085f57600080fd5b505af1158015610873573d6000803e3d6000fd5b505050507f55031ab04283cb87178b4f332b117448e20ff278f537e780ea5895348061b12360008385876040516108ad9493929190611367565b60405180910390a17fdf5ed7126eb0ed86cdc55bf6a15ed9f108a5215c13a19f5c114b9e78c91a02f360008585846040516108eb94939291906113b3565b60405180910390a150505050565b60006003600083815260200190815260200160002060010160009054906101000a900460ff169050919050565b60006004600083815260200190815260200160002060009054906101000a900473ffffffffffffffffffffffffffffffffffffffff169050919050565b600160009054906101000a900473ffffffffffffffffffffffffffffffffffffffff1673ffffffffffffffffffffffffffffffffffffffff1663a4b645eb836109ac6000610aad565b6001856040518563ffffffff1660e01b81526004016109ce94939291906113ff565b600060405180830381600087803b1580156109e857600080fd5b505af11580156109fc573d6000803e3d6000fd5b505050508160046000610a0f6000610aad565b815260200190815260200160002060006101000a81548173ffffffffffffffffffffffffffffffffffffffff021916908373ffffffffffffffffffffffffffffffffffffffff160217905550610a656000610abb565b7f368d36692f29a65629a5324e74a67aab9586b6c72b614fcbd4743eda6347d2eb610a906000610aad565b8284604051610aa19392919061145e565b60405180910390a15050565b600081600001549050919050565b6001816000016000828254019250508190555050565b6000604051905090565b600080fd5b600080fd5b6000819050919050565b610af881610ae5565b8114610b0357600080fd5b50565b600081359050610b1581610aef565b92915050565b600060208284031215610b3157610b30610adb565b5b6000610b3f84828501610b06565b91505092915050565b610b5181610ae5565b82525050565b6000602082019050610b6c6000830184610b48565b92915050565b600073ffffffffffffffffffffffffffffffffffffffff82169050919050565b6000610b9d82610b72565b9050919050565b610bad81610b92565b8114610bb857600080fd5b50565b600081359050610bca81610ba4565b92915050565b600060208284031215610be657610be5610adb565b5b6000610bf484828501610bbb565b91505092915050565b610c0681610b92565b82525050565b6000602082019050610c216000830184610bfd565b92915050565b60008115159050919050565b610c3c81610c27565b8114610c4757600080fd5b50565b600081359050610c5981610c33565b92915050565b600080600060608486031215610c7857610c77610adb565b5b6000610c8686828701610b06565b9350506020610c9786828701610b06565b9250506040610ca886828701610c4a565b9150509250925092565b610cbb81610c27565b82525050565b6000604082019050610cd66000830185610b48565b610ce36020830184610cb2565b9392505050565b600080fd5b600080fd5b6000601f19601f8301169050919050565b7f4e487b7100000000000000000000000000000000000000000000000000000000600052604160045260246000fd5b610d3d82610cf4565b810181811067ffffffffffffffff82111715610d5c57610d5b610d05565b5b80604052505050565b6000610d6f610ad1565b9050610d7b8282610d34565b919050565b600067ffffffffffffffff821115610d9b57610d9a610d05565b5b610da482610cf4565b9050602081019050919050565b82818337600083830152505050565b6000610dd3610dce84610d80565b610d65565b905082815260208101848484011115610def57610dee610cef565b5b610dfa848285610db1565b509392505050565b600082601f830112610e1757610e16610cea565b5b8135610e27848260208601610dc0565b91505092915050565b60008060008060808587031215610e4a57610e49610adb565b5b6000610e5887828801610b06565b9450506020610e6987828801610bbb565b935050604085013567ffffffffffffffff811115610e8a57610e89610ae0565b5b610e9687828801610e02565b925050606085013567ffffffffffffffff811115610eb757610eb6610ae0565b5b610ec387828801610e02565b91505092959194509250565b6000602082019050610ee46000830184610cb2565b92915050565b60008060408385031215610f0157610f00610adb565b5b6000610f0f85828601610bbb565b925050602083013567ffffffffffffffff811115610f3057610f2f610ae0565b5b610f3c85828601610e02565b9150509250929050565b6000819050919050565b6000819050919050565b6000610f75610f70610f6b84610f46565b610f50565b610ae5565b9050919050565b610f8581610f5a565b82525050565b6000604082019050610fa06000830185610bfd565b610fad6020830184610f7c565b9392505050565b600081519050610fc381610aef565b92915050565b600060208284031215610fdf57610fde610adb565b5b6000610fed84828501610fb4565b91505092915050565b600060408201905061100b6000830185610bfd565b6110186020830184610b48565b9392505050565b600082825260208201905092915050565b7f43616c6c657220646f6573206e6f74206f776e73207468652070726f7065727460008201527f7920746f6b656e00000000000000000000000000000000000000000000000000602082015250565b600061108c60278361101f565b915061109782611030565b604082019050919050565b600060208201905081810360008301526110bb8161107f565b9050919050565b60006060820190506110d76000830186610b48565b6110e46020830185610b48565b6110f16040830184610cb2565b949350505050565b6000819050919050565b600061111e611119611114846110f9565b610f50565b610ae5565b9050919050565b61112e81611103565b82525050565b600082825260208201905092915050565b50565b6000611155600083611134565b915061116082611145565b600082019050919050565b600060a0820190506111806000830187610b48565b61118d6020830186610bfd565b61119a6040830185610bfd565b6111a76060830184611125565b81810360808301526111b881611148565b905095945050505050565b60006080820190506111d86000830187610b48565b6111e56020830186610bfd565b6111f26040830185610bfd565b6111ff6060830184610b48565b95945050505050565b7f455243313135353a2061646472657373207a65726f206973206e6f742061207660008201527f616c6964206163636f756e740000000000000000000000000000000000000000602082015250565b6000611264602c8361101f565b915061126f82611208565b604082019050919050565b6000602082019050818103600083015261129381611257565b9050919050565b600081519050919050565b60005b838110156112c35780820151818401526020810190506112a8565b60008484015250505050565b60006112da8261129a565b6112e4818561101f565b93506112f48185602086016112a5565b6112fd81610cf4565b840191505092915050565b600060a08201905061131d6000830187610bfd565b61132a6020830186610f7c565b6113376040830185610b48565b818103606083015261134981846112cf565b9050818103608083015261135c81611148565b905095945050505050565b600060808201905061137c6000830187610f7c565b818103602083015261138e81866112cf565b905061139d6040830185610bfd565b6113aa6060830184610b48565b95945050505050565b60006080820190506113c86000830187610f7c565b6113d56020830186610b48565b6113e26040830185610bfd565b81810360608301526113f481846112cf565b905095945050505050565b600060a0820190506114146000830187610bfd565b6114216020830186610b48565b61142e6040830185611125565b818103606083015261144081846112cf565b9050818103608083015261145381611148565b905095945050505050565b60006060820190506114736000830186610b48565b818103602083015261148581856112cf565b90506114946040830184610bfd565b94935050505056fea26469706673582212208896878ab8109b905a20abb7996939d9823050b0293c9822c97a195ad22d427b64736f6c6343000811003360806040523480156200001157600080fd5b5060405162000f8938038062000f8983398181016040528101906200003791906200012a565b816000806101000a81548173ffffffffffffffffffffffffffffffffffffffff021916908373ffffffffffffffffffffffffffffffffffffffff16021790555080600160006101000a81548173ffffffffffffffffffffffffffffffffffffffff021916908373ffffffffffffffffffffffffffffffffffffffff160217905550505062000171565b600080fd5b600073ffffffffffffffffffffffffffffffffffffffff82169050919050565b6000620000f282620000c5565b9050919050565b6200010481620000e5565b81146200011057600080fd5b50565b6000815190506200012481620000f9565b92915050565b60008060408385031215620001445762000143620000c0565b5b6000620001548582860162000113565b9250506020620001678582860162000113565b9150509250929050565b610e0880620001816000396000f3fe608060405234801561001057600080fd5b506004361061002b5760003560e01c8063680399f914610030575b600080fd5b61004a600480360381019061004591906107c1565b61004c565b005b6000600160009054906101000a900473ffffffffffffffffffffffffffffffffffffffff1673ffffffffffffffffffffffffffffffffffffffff16630789752c876040518263ffffffff1660e01b81526004016100a99190610867565b602060405180830381865afa1580156100c6573d6000803e3d6000fd5b505050506040513d601f19601f820116820180604052508101906100ea9190610897565b90506000600160009054906101000a900473ffffffffffffffffffffffffffffffffffffffff1673ffffffffffffffffffffffffffffffffffffffff1663e34fc531886040518263ffffffff1660e01b81526004016101499190610867565b602060405180830381865afa158015610166573d6000803e3d6000fd5b505050506040513d601f19601f8201168201806040525081019061018a91906108d9565b90506000600160009054906101000a900473ffffffffffffffffffffffffffffffffffffffff1673ffffffffffffffffffffffffffffffffffffffff1663ce7acb98896040518263ffffffff1660e01b81526004016101e99190610867565b602060405180830381865afa158015610206573d6000803e3d6000fd5b505050506040513d601f19601f8201168201806040525081019061022a919061093e565b90506000600160009054906101000a900473ffffffffffffffffffffffffffffffffffffffff1673ffffffffffffffffffffffffffffffffffffffff16632e3f1817886040518263ffffffff1660e01b8152600401610289919061097a565b602060405180830381865afa1580156102a6573d6000803e3d6000fd5b505050506040513d601f19601f820116820180604052508101906102ca9190610897565b90508773ffffffffffffffffffffffffffffffffffffffff168373ffffffffffffffffffffffffffffffffffffffff161461033a576040517f08c379a000000000000000000000000000000000000000000000000000000000815260040161033190610a18565b60405180910390fd5b600073ffffffffffffffffffffffffffffffffffffffff168773ffffffffffffffffffffffffffffffffffffffff16036103a9576040517f08c379a00000000000000000000000000000000000000000000000000000000081526004016103a090610aaa565b60405180910390fd5b8273ffffffffffffffffffffffffffffffffffffffff168773ffffffffffffffffffffffffffffffffffffffff1603610417576040517f08c379a000000000000000000000000000000000000000000000000000000000815260040161040e90610b3c565b60405180910390fd5b600115158215151461045e576040517f08c379a000000000000000000000000000000000000000000000000000000000815260040161045590610ba8565b60405180910390fd5b838110156104a1576040517f08c379a000000000000000000000000000000000000000000000000000000000815260040161049890610c3a565b60405180910390fd5b60008054906101000a900473ffffffffffffffffffffffffffffffffffffffff1673ffffffffffffffffffffffffffffffffffffffff1663f242432a888a6000888a6040518663ffffffff1660e01b8152600401610503959493929190610d1e565b600060405180830381600087803b15801561051d57600080fd5b505af1158015610531573d6000803e3d6000fd5b5050505060008054906101000a900473ffffffffffffffffffffffffffffffffffffffff1673ffffffffffffffffffffffffffffffffffffffff1663f242432a89898c8a8a6040518663ffffffff1660e01b8152600401610596959493929190610d78565b600060405180830381600087803b1580156105b057600080fd5b505af11580156105c4573d6000803e3d6000fd5b50505050505050505050505050565b6000604051905090565b600080fd5b600080fd5b6000819050919050565b6105fa816105e7565b811461060557600080fd5b50565b600081359050610617816105f1565b92915050565b600073ffffffffffffffffffffffffffffffffffffffff82169050919050565b60006106488261061d565b9050919050565b6106588161063d565b811461066357600080fd5b50565b6000813590506106758161064f565b92915050565b600080fd5b600080fd5b6000601f19601f8301169050919050565b7f4e487b7100000000000000000000000000000000000000000000000000000000600052604160045260246000fd5b6106ce82610685565b810181811067ffffffffffffffff821117156106ed576106ec610696565b5b80604052505050565b60006107006105d3565b905061070c82826106c5565b919050565b600067ffffffffffffffff82111561072c5761072b610696565b5b61073582610685565b9050602081019050919050565b82818337600083830152505050565b600061076461075f84610711565b6106f6565b9050828152602081018484840111156107805761077f610680565b5b61078b848285610742565b509392505050565b600082601f8301126107a8576107a761067b565b5b81356107b8848260208601610751565b91505092915050565b600080600080600060a086880312156107dd576107dc6105dd565b5b60006107eb88828901610608565b95505060206107fc88828901610666565b945050604061080d88828901610666565b935050606061081e88828901610608565b925050608086013567ffffffffffffffff81111561083f5761083e6105e2565b5b61084b88828901610793565b9150509295509295909350565b610861816105e7565b82525050565b600060208201905061087c6000830184610858565b92915050565b600081519050610891816105f1565b92915050565b6000602082840312156108ad576108ac6105dd565b5b60006108bb84828501610882565b91505092915050565b6000815190506108d38161064f565b92915050565b6000602082840312156108ef576108ee6105dd565b5b60006108fd848285016108c4565b91505092915050565b60008115159050919050565b61091b81610906565b811461092657600080fd5b50565b60008151905061093881610912565b92915050565b600060208284031215610954576109536105dd565b5b600061096284828501610929565b91505092915050565b6109748161063d565b82525050565b600060208201905061098f600083018461096b565b92915050565b600082825260208201905092915050565b7f53656c6c657220646f6573206e6f74206f776e73207468652070726f7065727460008201527f7900000000000000000000000000000000000000000000000000000000000000602082015250565b6000610a02602183610995565b9150610a0d826109a6565b604082019050919050565b60006020820190508181036000830152610a31816109f5565b9050919050565b7f455243313135353a2061646472657373207a65726f206973206e6f742061207660008201527f616c6964206163636f756e740000000000000000000000000000000000000000602082015250565b6000610a94602c83610995565b9150610a9f82610a38565b604082019050919050565b60006020820190508181036000830152610ac381610a87565b9050919050565b7f455243313135353a20427579657220697320616c7265616479206f776e73207460008201527f68652070726f7065727479000000000000000000000000000000000000000000602082015250565b6000610b26602b83610995565b9150610b3182610aca565b604082019050919050565b60006020820190508181036000830152610b5581610b19565b9050919050565b7f50726f7065727479206973206e6f7420666f722053616c650000000000000000600082015250565b6000610b92601883610995565b9150610b9d82610b5c565b602082019050919050565b60006020820190508181036000830152610bc181610b85565b9050919050565b7f427579657220646f6573206e6f7420686176652073756666696369656e74206260008201527f616c616e636520746f20627579207468652070726f7065727479000000000000602082015250565b6000610c24603a83610995565b9150610c2f82610bc8565b604082019050919050565b60006020820190508181036000830152610c5381610c17565b9050919050565b6000819050919050565b6000819050919050565b6000610c89610c84610c7f84610c5a565b610c64565b6105e7565b9050919050565b610c9981610c6e565b82525050565b600081519050919050565b600082825260208201905092915050565b60005b83811015610cd9578082015181840152602081019050610cbe565b60008484015250505050565b6000610cf082610c9f565b610cfa8185610caa565b9350610d0a818560208601610cbb565b610d1381610685565b840191505092915050565b600060a082019050610d33600083018861096b565b610d40602083018761096b565b610d4d6040830186610c90565b610d5a6060830185610858565b8181036080830152610d6c8184610ce5565b90509695505050505050565b600060a082019050610d8d600083018861096b565b610d9a602083018761096b565b610da76040830186610858565b610db46060830185610858565b8181036080830152610dc68184610ce5565b9050969550505050505056fea264697066735822122015ddc41a2452acb6386af49605d800d854d4e089fdf7ea54cb182087c62d97ff64736f6c63430008110033",
  "linkReferences": {},
  "deployedLinkReferences": {}
}